{
  "contractName": "VotingSystem",
  "abi": [
    {
      "inputs": [
        {
          "internalType": "contract IERC20",
          "name": "_token",
          "type": "address"
        }
      ],
      "stateMutability": "nonpayable",
      "type": "constructor"
    },
    {
      "anonymous": false,
      "inputs": [
        {
          "indexed": true,
          "internalType": "address",
          "name": "previousOwner",
          "type": "address"
        },
        {
          "indexed": true,
          "internalType": "address",
          "name": "newOwner",
          "type": "address"
        }
      ],
      "name": "OwnershipTransferred",
      "type": "event"
    },
    {
      "anonymous": false,
      "inputs": [
        {
          "indexed": true,
          "internalType": "uint256",
          "name": "proposalId",
          "type": "uint256"
        },
        {
          "indexed": false,
          "internalType": "string",
          "name": "description",
          "type": "string"
        }
      ],
      "name": "ProposalCreated",
      "type": "event"
    },
    {
      "anonymous": false,
      "inputs": [
        {
          "indexed": true,
          "internalType": "address",
          "name": "voter",
          "type": "address"
        },
        {
          "indexed": true,
          "internalType": "uint256",
          "name": "proposalId",
          "type": "uint256"
        }
      ],
      "name": "Voted",
      "type": "event"
    },
    {
      "inputs": [],
      "name": "owner",
      "outputs": [
        {
          "internalType": "address",
          "name": "",
          "type": "address"
        }
      ],
      "stateMutability": "view",
      "type": "function",
      "constant": true
    },
    {
      "inputs": [
        {
          "internalType": "uint256",
          "name": "",
          "type": "uint256"
        }
      ],
      "name": "proposals",
      "outputs": [
        {
          "internalType": "string",
          "name": "description",
          "type": "string"
        },
        {
          "internalType": "uint256",
          "name": "voteCount",
          "type": "uint256"
        }
      ],
      "stateMutability": "view",
      "type": "function",
      "constant": true
    },
    {
      "inputs": [],
      "name": "renounceOwnership",
      "outputs": [],
      "stateMutability": "nonpayable",
      "type": "function"
    },
    {
      "inputs": [],
      "name": "token",
      "outputs": [
        {
          "internalType": "contract IERC20",
          "name": "",
          "type": "address"
        }
      ],
      "stateMutability": "view",
      "type": "function",
      "constant": true
    },
    {
      "inputs": [
        {
          "internalType": "address",
          "name": "newOwner",
          "type": "address"
        }
      ],
      "name": "transferOwnership",
      "outputs": [],
      "stateMutability": "nonpayable",
      "type": "function"
    },
    {
      "inputs": [
        {
          "internalType": "address",
          "name": "",
          "type": "address"
        }
      ],
      "name": "voteSignatures",
      "outputs": [
        {
          "internalType": "uint256",
          "name": "",
          "type": "uint256"
        }
      ],
      "stateMutability": "view",
      "type": "function",
      "constant": true
    },
    {
      "inputs": [
        {
          "internalType": "address",
          "name": "",
          "type": "address"
        }
      ],
      "name": "voters",
      "outputs": [
        {
          "internalType": "bool",
          "name": "",
          "type": "bool"
        }
      ],
      "stateMutability": "view",
      "type": "function",
      "constant": true
    },
    {
      "inputs": [
        {
          "internalType": "string",
          "name": "description",
          "type": "string"
        }
      ],
      "name": "createProposal",
      "outputs": [],
      "stateMutability": "nonpayable",
      "type": "function"
    },
    {
      "inputs": [
        {
          "internalType": "uint256",
          "name": "proposalId",
          "type": "uint256"
        },
        {
          "internalType": "uint256",
          "name": "signature",
          "type": "uint256"
        }
      ],
      "name": "vote",
      "outputs": [],
      "stateMutability": "nonpayable",
      "type": "function"
    },
    {
      "inputs": [
        {
          "internalType": "address",
          "name": "voter",
          "type": "address"
        },
        {
          "internalType": "uint256",
          "name": "signature",
          "type": "uint256"
        }
      ],
      "name": "addVoter",
      "outputs": [],
      "stateMutability": "nonpayable",
      "type": "function"
    }
  ],
  "bytecode": "0x60806040523480156200001157600080fd5b50604051620016a4380380620016a48339818101604052810190620000379190620001e9565b620000576200004b6200009f60201b60201c565b620000a760201b60201c565b80600460006101000a81548173ffffffffffffffffffffffffffffffffffffffff021916908373ffffffffffffffffffffffffffffffffffffffff160217905550506200021b565b600033905090565b60008060009054906101000a900473ffffffffffffffffffffffffffffffffffffffff169050816000806101000a81548173ffffffffffffffffffffffffffffffffffffffff021916908373ffffffffffffffffffffffffffffffffffffffff1602179055508173ffffffffffffffffffffffffffffffffffffffff168173ffffffffffffffffffffffffffffffffffffffff167f8be0079c531659141344cd1fd0a4f28419497f9722a3daafe3b4186f6b6457e060405160405180910390a35050565b600080fd5b600073ffffffffffffffffffffffffffffffffffffffff82169050919050565b60006200019d8262000170565b9050919050565b6000620001b18262000190565b9050919050565b620001c381620001a4565b8114620001cf57600080fd5b50565b600081519050620001e381620001b8565b92915050565b6000602082840312156200020257620002016200016b565b5b60006200021284828501620001d2565b91505092915050565b611479806200022b6000396000f3fe608060405234801561001057600080fd5b506004361061009e5760003560e01c8063b384abef11610066578063b384abef14610148578063b49670f414610164578063b9f05f2f14610194578063f2fde38b146101b0578063fc0c546a146101cc5761009e565b8063013cf08b146100a357806349c2a1a6146100d4578063715018a6146100f05780638da5cb5b146100fa578063a3ec138d14610118575b600080fd5b6100bd60048036038101906100b8919061095e565b6101ea565b6040516100cb929190610a2a565b60405180910390f35b6100ee60048036038101906100e99190610abf565b6102a6565b005b6100f86103a9565b005b6101026103bd565b60405161010f9190610b4d565b60405180910390f35b610132600480360381019061012d9190610b94565b6103e6565b60405161013f9190610bdc565b60405180910390f35b610162600480360381019061015d9190610bf7565b610406565b005b61017e60048036038101906101799190610b94565b610636565b60405161018b9190610c37565b60405180910390f35b6101ae60048036038101906101a99190610c52565b61064e565b005b6101ca60048036038101906101c59190610b94565b61072b565b005b6101d46107ae565b6040516101e19190610cf1565b60405180910390f35b600181815481106101fa57600080fd5b906000526020600020906002020160009150905080600001805461021d90610d3b565b80601f016020809104026020016040519081016040528092919081815260200182805461024990610d3b565b80156102965780601f1061026b57610100808354040283529160200191610296565b820191906000526020600020905b81548152906001019060200180831161027957829003601f168201915b5050505050908060010154905082565b6102ae6107d4565b6001604051806040016040528084848080601f016020809104026020016040519081016040528093929190818152602001838380828437600081840152601f19601f8201169050808301925050505050505081526020016000815250908060018154018082558091505060019003906000526020600020906002020160009091909190915060008201518160000190816103489190610f3d565b50602082015181600101555050600060018080549050610368919061103e565b9050807f9c770c289ab5bf7e57cb1d23c8ceae993aea46eb64847072fd3d78ca60d3e432848460405161039c9291906110ae565b60405180910390a2505050565b6103b16107d4565b6103bb6000610852565b565b60008060009054906101000a900473ffffffffffffffffffffffffffffffffffffffff16905090565b60026020528060005260406000206000915054906101000a900460ff1681565b600260003373ffffffffffffffffffffffffffffffffffffffff1673ffffffffffffffffffffffffffffffffffffffff16815260200190815260200160002060009054906101000a900460ff1615610493576040517f08c379a000000000000000000000000000000000000000000000000000000000815260040161048a9061111e565b60405180910390fd5b60018054905082106104da576040517f08c379a00000000000000000000000000000000000000000000000000000000081526004016104d1906111b0565b60405180910390fd5b600360003373ffffffffffffffffffffffffffffffffffffffff1673ffffffffffffffffffffffffffffffffffffffff16815260200190815260200160002054811461055b576040517f08c379a000000000000000000000000000000000000000000000000000000000815260040161055290611242565b60405180910390fd5b6001828154811061056f5761056e611262565b5b9060005260206000209060020201600101600081548092919061059190611291565b91905055506001600260003373ffffffffffffffffffffffffffffffffffffffff1673ffffffffffffffffffffffffffffffffffffffff16815260200190815260200160002060006101000a81548160ff021916908315150217905550813373ffffffffffffffffffffffffffffffffffffffff167f4d99b957a2bc29a30ebd96a7be8e68fe50a3c701db28a91436490b7d53870ca460405160405180910390a35050565b60036020528060005260406000206000915090505481565b6106566107d4565b600260008373ffffffffffffffffffffffffffffffffffffffff1673ffffffffffffffffffffffffffffffffffffffff16815260200190815260200160002060009054906101000a900460ff16156106e3576040517f08c379a00000000000000000000000000000000000000000000000000000000081526004016106da90611325565b60405180910390fd5b80600360008473ffffffffffffffffffffffffffffffffffffffff1673ffffffffffffffffffffffffffffffffffffffff168152602001908152602001600020819055505050565b6107336107d4565b600073ffffffffffffffffffffffffffffffffffffffff168173ffffffffffffffffffffffffffffffffffffffff16036107a2576040517f08c379a0000000000000000000000000000000000000000000000000000000008152600401610799906113b7565b60405180910390fd5b6107ab81610852565b50565b600460009054906101000a900473ffffffffffffffffffffffffffffffffffffffff1681565b6107dc610916565b73ffffffffffffffffffffffffffffffffffffffff166107fa6103bd565b73ffffffffffffffffffffffffffffffffffffffff1614610850576040517f08c379a000000000000000000000000000000000000000000000000000000000815260040161084790611423565b60405180910390fd5b565b60008060009054906101000a900473ffffffffffffffffffffffffffffffffffffffff169050816000806101000a81548173ffffffffffffffffffffffffffffffffffffffff021916908373ffffffffffffffffffffffffffffffffffffffff1602179055508173ffffffffffffffffffffffffffffffffffffffff168173ffffffffffffffffffffffffffffffffffffffff167f8be0079c531659141344cd1fd0a4f28419497f9722a3daafe3b4186f6b6457e060405160405180910390a35050565b600033905090565b600080fd5b600080fd5b6000819050919050565b61093b81610928565b811461094657600080fd5b50565b60008135905061095881610932565b92915050565b6000602082840312156109745761097361091e565b5b600061098284828501610949565b91505092915050565b600081519050919050565b600082825260208201905092915050565b60005b838110156109c55780820151818401526020810190506109aa565b60008484015250505050565b6000601f19601f8301169050919050565b60006109ed8261098b565b6109f78185610996565b9350610a078185602086016109a7565b610a10816109d1565b840191505092915050565b610a2481610928565b82525050565b60006040820190508181036000830152610a4481856109e2565b9050610a536020830184610a1b565b9392505050565b600080fd5b600080fd5b600080fd5b60008083601f840112610a7f57610a7e610a5a565b5b8235905067ffffffffffffffff811115610a9c57610a9b610a5f565b5b602083019150836001820283011115610ab857610ab7610a64565b5b9250929050565b60008060208385031215610ad657610ad561091e565b5b600083013567ffffffffffffffff811115610af457610af3610923565b5b610b0085828601610a69565b92509250509250929050565b600073ffffffffffffffffffffffffffffffffffffffff82169050919050565b6000610b3782610b0c565b9050919050565b610b4781610b2c565b82525050565b6000602082019050610b626000830184610b3e565b92915050565b610b7181610b2c565b8114610b7c57600080fd5b50565b600081359050610b8e81610b68565b92915050565b600060208284031215610baa57610ba961091e565b5b6000610bb884828501610b7f565b91505092915050565b60008115159050919050565b610bd681610bc1565b82525050565b6000602082019050610bf16000830184610bcd565b92915050565b60008060408385031215610c0e57610c0d61091e565b5b6000610c1c85828601610949565b9250506020610c2d85828601610949565b9150509250929050565b6000602082019050610c4c6000830184610a1b565b92915050565b60008060408385031215610c6957610c6861091e565b5b6000610c7785828601610b7f565b9250506020610c8885828601610949565b9150509250929050565b6000819050919050565b6000610cb7610cb2610cad84610b0c565b610c92565b610b0c565b9050919050565b6000610cc982610c9c565b9050919050565b6000610cdb82610cbe565b9050919050565b610ceb81610cd0565b82525050565b6000602082019050610d066000830184610ce2565b92915050565b7f4e487b7100000000000000000000000000000000000000000000000000000000600052602260045260246000fd5b60006002820490506001821680610d5357607f821691505b602082108103610d6657610d65610d0c565b5b50919050565b7f4e487b7100000000000000000000000000000000000000000000000000000000600052604160045260246000fd5b60008190508160005260206000209050919050565b60006020601f8301049050919050565b600082821b905092915050565b600060088302610dfd7fffffffffffffffffffffffffffffffffffffffffffffffffffffffffffffffff82610dc0565b610e078683610dc0565b95508019841693508086168417925050509392505050565b6000610e3a610e35610e3084610928565b610c92565b610928565b9050919050565b6000819050919050565b610e5483610e1f565b610e68610e6082610e41565b848454610dcd565b825550505050565b600090565b610e7d610e70565b610e88818484610e4b565b505050565b5b81811015610eac57610ea1600082610e75565b600181019050610e8e565b5050565b601f821115610ef157610ec281610d9b565b610ecb84610db0565b81016020851015610eda578190505b610eee610ee685610db0565b830182610e8d565b50505b505050565b600082821c905092915050565b6000610f1460001984600802610ef6565b1980831691505092915050565b6000610f2d8383610f03565b9150826002028217905092915050565b610f468261098b565b67ffffffffffffffff811115610f5f57610f5e610d6c565b5b610f698254610d3b565b610f74828285610eb0565b600060209050601f831160018114610fa75760008415610f95578287015190505b610f9f8582610f21565b865550611007565b601f198416610fb586610d9b565b60005b82811015610fdd57848901518255600182019150602085019450602081019050610fb8565b86831015610ffa5784890151610ff6601f891682610f03565b8355505b6001600288020188555050505b505050505050565b7f4e487b7100000000000000000000000000000000000000000000000000000000600052601160045260246000fd5b600061104982610928565b915061105483610928565b925082820390508181111561106c5761106b61100f565b5b92915050565b82818337600083830152505050565b600061108d8385610996565b935061109a838584611072565b6110a3836109d1565b840190509392505050565b600060208201905081810360008301526110c9818486611081565b90509392505050565b7f436f6e7472616374206572726f723a20416c726561647920766f7465642e0000600082015250565b6000611108601e83610996565b9150611113826110d2565b602082019050919050565b60006020820190508181036000830152611137816110fb565b9050919050565b7f436f6e7472616374206572726f723a20496e76616c69642070726f706f73616c60008201527f2049442e00000000000000000000000000000000000000000000000000000000602082015250565b600061119a602483610996565b91506111a58261113e565b604082019050919050565b600060208201905081810360008301526111c98161118d565b9050919050565b7f436f6e7472616374206572726f723a20496e76616c696420766f74652073696760008201527f6e61747572652e00000000000000000000000000000000000000000000000000602082015250565b600061122c602783610996565b9150611237826111d0565b604082019050919050565b6000602082019050818103600083015261125b8161121f565b9050919050565b7f4e487b7100000000000000000000000000000000000000000000000000000000600052603260045260246000fd5b600061129c82610928565b91507fffffffffffffffffffffffffffffffffffffffffffffffffffffffffffffffff82036112ce576112cd61100f565b5b600182019050919050565b7f436f6e7472616374206572726f723a20416c72656164792061646465642e0000600082015250565b600061130f601e83610996565b915061131a826112d9565b602082019050919050565b6000602082019050818103600083015261133e81611302565b9050919050565b7f4f776e61626c653a206e6577206f776e657220697320746865207a65726f206160008201527f6464726573730000000000000000000000000000000000000000000000000000602082015250565b60006113a1602683610996565b91506113ac82611345565b604082019050919050565b600060208201905081810360008301526113d081611394565b9050919050565b7f4f776e61626c653a2063616c6c6572206973206e6f7420746865206f776e6572600082015250565b600061140d602083610996565b9150611418826113d7565b602082019050919050565b6000602082019050818103600083015261143c81611400565b905091905056fea2646970667358221220083f01e489877cf6d31ca849ac0ce9bf0371625e48e0e25ee1dfbab32d0a682964736f6c63430008120033",
  "immutableReferences": {},
  "source": "// SPDX-License-Identifier: MIT\npragma solidity ^0.8.2 <0.9.0;\n\nimport \"@openzeppelin/contracts/token/ERC20/IERC20.sol\";\nimport \"@openzeppelin/contracts/access/Ownable.sol\";\n\ncontract VotingSystem is Ownable {\n    struct Proposal {\n        string description;\n        uint256 voteCount;\n    }\n    \n    // Array of Proposal structs to store the proposals\n    Proposal[] public proposals;\n\n    // Mapping to track whether an address has already voted\n    mapping(address => bool) public voters;\n    // Mapping to store vote signatures for each address\n    mapping(address => uint256) public voteSignatures;\n\n    IERC20 public token;\n\n    // Events\n    event ProposalCreated(uint256 indexed proposalId, string description);\n    event Voted(address indexed voter, uint256 indexed proposalId);\n\n     // Initializes the token instance when the contract is deployed\n    constructor(IERC20 _token) {\n        token = _token;\n    }\n  \n    // This function allows the contract owner to create a new proposal\n    function createProposal(string calldata description) external onlyOwner {\n        proposals.push(Proposal(description, 0));\n        uint256 proposalId = proposals.length - 1;\n        emit ProposalCreated(proposalId, description);\n    }\n\n    // This function allows eligible voters to cast their vote for a specific proposal\n    function vote(uint256 proposalId, uint256 signature) external {\n        // Authentication\n        require(!voters[msg.sender], \"Contract error: Already voted.\");\n        require(proposalId < proposals.length, \"Contract error: Invalid proposal ID.\");\n        require(signature == voteSignatures[msg.sender], \"Contract error: Invalid vote signature.\");\n\n        proposals[proposalId].voteCount++;\n        voters[msg.sender] = true;\n\n        emit Voted(msg.sender, proposalId);\n    }\n\n    // This function allows the contract owner to add a new voter and their respective vote signature\n    function addVoter(address voter, uint256 signature) external onlyOwner {\n        // Authentication\n        require(!voters[voter], \"Contract error: Already added.\");\n        voteSignatures[voter] = signature;\n    }\n}\n",
  "sourcePath": "/Users/shunsukekano/Developer/truffle-voting/contracts/VotingSystem.sol",
  "compiler": {
    "name": "solc",
    "version": "0.8.18+commit.87f61d96.Emscripten.clang"
  },
  "schemaVersion": "3.4.13",
  "updatedAt": "2023-03-28T23:02:07.221Z",
  "networkType": "ethereum",
  "devdoc": {
    "kind": "dev",
    "methods": {
      "owner()": {
        "details": "Returns the address of the current owner."
      },
      "renounceOwnership()": {
        "details": "Leaves the contract without owner. It will not be possible to call `onlyOwner` functions anymore. Can only be called by the current owner. NOTE: Renouncing ownership will leave the contract without an owner, thereby removing any functionality that is only available to the owner."
      },
      "transferOwnership(address)": {
        "details": "Transfers ownership of the contract to a new account (`newOwner`). Can only be called by the current owner."
      }
    },
    "version": 1
  },
  "userdoc": {
    "kind": "user",
    "methods": {},
    "version": 1
  }
}